:020000040800F2
:10000000982E0020490200085702000859020008F3
:100010005B0200085D0200085F02000800000000AB
:100020000000000000000000000000006102000865
:100030006302000800000000DD020008C936000865
:1000400069020008690200086902000869020008E4
:1000500069020008690200086902000869020008D4
:1000600069020008690200086902000869020008C4
:1000700069020008690200086902000869020008B4
:1000800069020008690200086902000869020008A4
:100090006902000869020008690200086902000894
:1000A0006902000869020008690200086902000884
:1000B0006902000869020008690200086902000874
:1000C0006902000869020008690200086902000864
:1000D00069020008BD3E000869020008E53F00080B
:1000E0006902000869020008690200086902000844
:1000F0006902000869020008690200086902000834
:100100006902000869020008690200086902000823
:10011000690200086902000869020008593D0008E8
:100120006902000869020008690200086902000803
:1001300069020008690200086902000869020008F3
:1001400069020008690200086902000869020008E3
:100150006902000869020008690200086D40000891
:1001600069020008690200086902000869020008C3
:1001700069020008690200086902000869020008B3
:10018000690200086902000800F002F800F04CF86B
:100190000AA090E8000C82448344AAF10107DA45E2
:1001A00001D100F041F8AFF2090EBAE80F0013F0E8
:1001B000010F18BFFB1A43F001031847DC5D000074
:1001C000FC5D0000103A24BF78C878C1FAD8520705
:1001D00024BF30C830C144BF04680C6070470000C1
:1001E0000023002400250026103A28BF78C1FBD840
:1001F000520728BF30C148BF0B607047662905F021
:100200006A85642900F0DC80002070471FB505F086
:1002100058FD00F017FC04000020002104F0D4FF7A
:10022000E0601FBD10B510BD00F028FD1146FFF7BE
:10023000EDFF04F0F1FA00F046FD03B4FFF7F2FF22
:1002400003BC04F0D2F800000B48016841F47001CF
:1002500001600A480047FEE7FEE7FEE7FEE7FEE72B
:10026000FEE7FEE7FEE7FEE7FEE70000044805497B
:10027000034A054B7047000088ED00E08901000843
:10028000982A0020982E0020982A0020EFF3108052
:1002900072B6704780F310887047264C4FF6FF7592
:1002A00025604FF0000484F30988234C4FF00105CA
:1002B0002570224C4FF08055256062B6FEE730B4C1
:1002C0001E4C4FF08055256030BC704730B41B4C3D
:1002D0004FF08055256030BC704700BF72B6EFF319
:1002E000098050B11EF0100F08BF20ED108A203891
:1002F00080E8F00F12490968086000B5114880478E
:100300005DF804EB104811490A7802700C48104956
:100310000A680260106890E8F00F20301EF0100F9D
:1003200008BFB0EC108A80F309884EF0040E62B664
:10033000704700BF22ED00E0B200002004ED00E0B5
:10034000B800002069250008A7000020A8000020B0
:10035000C0000020704700000FB4044910B503AA84
:10036000029800F05DFB10BC5DF814FB6C000020EF
:1003700070B5044685690068C10601D5302600E0E5
:100380002026C00707D070BDD4E901213046904730
:10039000206A401C20626D1EF6D570BD70B5044603
:1003A00085690078C00707D170BDD4E901212020FC
:1003B0009047206A401C20626D1EF6D570BD00007B
:1003C0002DE9F0410646002410687529314616A52E
:1003D00010D0AFF30080002802DA404213A507E0F6
:1003E00031688A0701D512A502E0490704D511A595
:1003F000012401E0AFF3008000210A2206F1240766
:1004000009E0B0FBF2FCB0FBF2F302FB1C00303061
:1004100078541846491C0028F3D123462A46304612
:10042000BDE8F04100F093B8000000002D0000008E
:100430002B000000200000002DE9F0474FF0000ADB
:1004400089460446C0F820A02046E1688847002875
:1004500076D0252806D0D4E901219047206A401C97
:100460002062F1E7E168204600258847C4F81CA017
:1004700006460027C4F818A02A2E09D0304603F0FB
:10048000ADFF38B304EB8708303EC8F8186019E0B8
:1004900059F8041B204604EB87029161E168884704
:1004A000012F064618D1E069002820DA25F0200542
:1004B0001DE0D8F8180000EB800006EB4000303853
:1004C000C8F818002046E1688847064603F086FF12
:1004D0000028EED1012F0AD02E2E08D12046E16847
:1004E00088477F1C0646022F45F02005C4DBA06923
:1004F000002803DA404245F00105A061E80701D079
:1005000025F01005B6B1A6F14100192802D8203611
:1005100045F400654A463146204625604D46FFF7C2
:100520006DFE58B1012806D0ED1D25F0070000F141
:10053000080989E704E005F1040985E730468AE700
:10054000206ABDE8F08770477047704770472DE913
:10055000F0470D4699469246044600F1240801688A
:10056000880604D5E06921F01001216000E0012037
:10057000A84201DD471B00E00027A1697A1902EBC0
:100580000900081AA0612078C00602D42046FFF7AF
:10059000EFFE002608E0D4E901211AF80600904792
:1005A000206A401C761C20624E45F4DB2078C00691
:1005B0000AD52046FFF7DCFE06E0D4E90121302011
:1005C0009047206A401C2062381EA7F10107F4DC26
:1005D00007E0D4E9012118F805009047206A401C83
:1005E0002062281EA5F10105F3DC2046FFF7D6FEA8
:1005F0002078000602D50220BDE8F0870120FBE745
:1006000070472DE9FF4F0C461E464FF0FF378BB069
:10061000D2E90001DDF860800A908A46C1F30A55EC
:1006200005B93D46002108464FF00000BAF1000F21
:1006300000F4400005DA00EB80004FF4400101EACD
:1006400050004FEA9059B9F1010F00DDB9460A9800
:1006500050EA4A000ED044F61050A5F2FF3545434B
:100660002F14B8F1000F1ED07542291E1EDDC9F1EE
:1006700000021CE0B8F1010F4FF0000001D0302162
:1006800003E0F24305E02154401CB042FBDB30465E
:100690000022002121540B99C1F80880C1E90020F3
:1006A0000FB0BDE8F08FBD1B6D1CDEE74A4600DAD7
:1006B000694206A800F068FA06AB93E8070003ABAE
:1006C00083E8070050460A9900F046FB8DE80700D2
:1006D000A0F500501F3800900398002D0ADD42F26B
:1006E0001F014A460844002303A90390684600F00E
:1006F000AFFD09E0A0F500504A461F38002303A9CA
:100700000390684600F0B9FD8DE807000004000C76
:1007100003D04FF0FF30410800E01046B8F1000F61
:1007200003D00022009215461EE0751E05D400F08D
:100730008DF9303262556D1EF9D5B346012208435A
:1007400002D000227F1C04E02078302801D1002252
:100750007F1E002A099784D01DE0112D07DA00F0D2
:1007600075F9303262556D1C50EA0102F5D108432B
:1007700002D00098C8B10EE00021681E05E0235C9D
:10078000625C63542254401E491C8142F7DBAB4635
:10079000A81B401E0990002004F80B000B98099A32
:1007A000C0F80880C0E9002B7AE711264FF0000856
:1007B00057E72DE9F04F88460446D21D22F0070185
:1007C00091B0D1E90001CDE90A0103F0EFFD024645
:1007D0000B98C00F01D02D2007E02068810701D5BC
:1007E0002B2002E0202101EAC000032A099001D059
:1007F000072A05DB03464146204600F085F90BE158
:100800002078800601D5E06900E00620B8F1650F88
:10081000814606D0B8F1660F18D0B8F1670F70D1D5
:1008200031E00020B9F1110F009001DB112301E04C
:1008300009F101030AAA01A90CA8FFF7E2FEDDE90C
:100840000C70002609F10105834647E001204B4664
:1008500000904FF000470AAA01A90CA8FFF7D1FEAB
:10086000DDE90DB00C995D46002610B909F10100D3
:100870000D18B9EB050003D4C0F1FF3609F10105ED
:10088000A5EB09002BE0B9F1010F01DA4FF00109E6
:100890000020B9F1110F0090484601DD112300E05E
:1008A00003460AAA01A90CA8FFF7ABFEDDE90C700C
:1008B0004D4600268346207800070AD4AB4500DA6F
:1008C0005D4601A8012D04DD411911F8011C3029F4
:1008D00007D04F4502DA17F1040F04DA01208246EF
:1008E0000FE06D1EEEE7002F02DCED1B3E4403E03F
:1008F000781CA84200DD7D1CB81B00F1010A4FF0F6
:1009000000472078000703D4AA4501DB4FF0FF3AE7
:100910000021B7F1004F0DF143088DF8431024D0AA
:1009200002202B23002F01DA7F422D230A21021EF1
:10093000A0F1010000DC5FB197FBF1FC97FBF1F245
:1009400001FB1C7C17460CF1300C08F801CDEEE7DA
:10095000A8F1010003702188090501D5452100E0B7
:100960006521A0F1010800F8011C09980FA9A1EB6D
:100970000807FF1D00B10120411901EBEA70A169D0
:100980003844081A401EA0612078C00602D42046D0
:10099000FFF7EEFC099828B1D4E901219047206ABD
:1009A000401C20622078C00622D52046FFF7E0FCDC
:1009B0001EE0002E04DBB34502DD01A8805D00E0EF
:1009C0003020D4E901219047206A401C2062761C27
:1009D000AAF101005FEA000A0AD100F033F8C0680A
:1009E0000168405CD4E901219047206A401C2062E4
:1009F000281EA5F10105DCDC07E0D4E9012118F887
:100A0000010B9047206A401C2062381EA7F10107A5
:100A1000F3DC2046FFF7C2FC032011B041E60000E2
:100A2000074B70B50D467B4400F05BF80446284642
:100A300000F01CF910B14FF0FF3070BD204670BDC2
:100A40009B3C000000487047582A002030B5B0F1A8
:100A50000A024FEA900E71F100034EEA817EB0EB7C
:100A60000E0061EB91014FEA101E4EEA017E10EB81
:100A70000E0041EB11114FEA102E4EEA016E10EB01
:100A80000E0041EB11214FEA104E4EEA014E10EBE1
:100A90000E0041EB1141401841F100014FEAD00036
:100AA00040EA41704FEAD10110EB80054FEA810422
:100AB00044EA907444EB01046D1944EB0404521BA6
:100AC000A3414FF0000348BF0A3200D530BD401C9F
:100AD00041F1000130BD000001694A1C0261087843
:100AE000704700B58FB0CDE901310021059105496E
:100AF0007944CDE9031011466846FFF79DFC0FB01D
:100B000000BD0000E5FFFFFF2DE9F0411F46044650
:100B100003260168072A01F4006004DB08B116A56A
:100B200005E016A503E008B115A500E015A521F024
:100B300010002060A069C01EA0610FB1401EA0611E
:100B40002046FFF715FC4FB1D4E901213846904704
:100B5000206A401C2062C01C206206E0206AFAE77E
:100B6000D4E9012115F8010B9047761EF8D22046F2
:100B7000FFF714FCBDE8F0814E414E006E616E003F
:100B8000494E4600696E66002DE9F04781461646DB
:100B90008AB0354878440DC88DE80D003248784455
:100BA000801C03AC0DC884E80D0041F69B3008445E
:100BB000372190FBF1F290FBF1F5A5F1800501FBE7
:100BC00012041B3C02D56442012000E00020DFF843
:100BD00098A080460027FA44AAF1BE0A0EE0E0077A
:100BE0000AD03246684607EB470101230AEB810130
:100BF00000F043FB8DE8070064107F1C002CEED151
:100C0000194F7F44AE3F19E0E80715D007EB0410F9
:100C10000DF1180A90E80E008AE80E00C068F04254
:100C200001D1981908903246012306A903A800F0C3
:100C300024FB03AB83E807006D10641C002DE3D197
:100C40004FF0010332466946B8F1000F03A802D005
:100C500000F0FEFA01E000F010FBC9E90001C9F85C
:100C600008200AB0BDE8F087C0520000007B00F009
:100C70008000704700487047382A00207546FFF70B
:100C8000F9FFAE4605006946534620F00700854649
:100C900018B020B5FFF7EAFABDE820404FF0000693
:100CA0004FF000074FF000084FF0000B21F0070154
:100CB000AC46ACE8C009ACE8C009ACE8C009ACE897
:100CC000C0098D46704710B50446AFF3008020463A
:100CD000BDE81040FFF7B1BA4FF0013C50F8042BCB
:100CE00051F8043B9A4221D1A2EB0C03934313EA3F
:100CF000CC1317D150F8042B51F8043B9A4215D16C
:100D0000A2EB0C03934313EACC130BD150F8042B42
:100D100051F8043B9A4209D1A2EB0C03934313EA26
:100D2000CC13DBD04FF00000704700BFD01A01BADF
:100D3000B1FA81F101F0180122FA01F0CB40C1F1C2
:100D40002001DBB2C0B2C01A2CFA01F3D11A9143D0
:100D500011EAC311E6D170475FEA400C08BF91F079
:100D6000000F4FEA8C234FEAC12243EA51514FEA68
:100D70001C5018BF00F5F0404FEA300018BF41F09A
:100D800000415FEA6C5C00F02980BCF1FF3F08BFC6
:100D900040F080407047130C06BF12044FF0100C57
:100DA0004FF0000C130E04BF12020CF1080C130FCD
:100DB00004BF12010CF1040C930F04BF92000CF15C
:100DC000020CD30F04BF52000CF1010C11464FF07E
:100DD0000002A0F11F00A0EB0C00704711F0004FC3
:100DE00008BF704731F000413FF4D5AF0B0C06BF90
:100DF00009044FF0100C4FF0000C0B0E04BF090259
:100E00000CF1080C0B0F04BF09010CF1040C8B0F43
:100E100004BF89000CF1020CCB0F04BF49000CF198
:100E2000010CCCF12003A0EB0C0022FA03F302FA30
:100E30000CF241EA030100F10100704720F07F4C01
:100E400080EA030023F07F47ACEB070303F57C53F4
:100E500000F0004003F1FF032DE980494FEA154BF4
:100E600009B44FEA144325EA0B4E24EA03480FF273
:100E7000042606EB132749083E785FEA320203FB9B
:100E80000667C7F5000707FB06F64FEA54374FEA37
:100E9000D64606F1020607FB066CCCF1005C4FEA71
:100EA0001C472CEA074C07FB06F40CFB06F504EB89
:100EB00015464FEA961634BF00204FF000404FEA27
:100EC000D13706FB07FC4FEA1C4C0CFB0BF7D21B7F
:100ED00003FB0CF761EB07010CFB0EF7B0EB0740CF
:100EE00072EB17420CFB08F734BFA2EB0742B2EBE0
:100EF000074261EB17414FEA0C444FEA910706FBAA
:100F000007FC4FEA1C4C0CFB0BF7B0EBC74072EB35
:100F1000573203FB0CF734BFA2EBC742B2EBC74218
:100F200061EB57310CFB0EF7B0EBC70072EB577259
:100F30000CFB08F734BFA2EBC702B2EBC70261EBB0
:100F40005771039F4FEA816141EA921104EBCC048F
:100F50004FEAD1374FEA826206FB07FC42EA901261
:100F60004FEA80604FEA1C4C0CFB0BF7D21B03FBD3
:100F70000CF761EB07010CFB0EF7B0EB074072EBCF
:100F800017420CFB08F734BFA2EB0742B2EB074253
:100F900061EB17414FEA8C554FEA910704EB9C2413
:100FA00006FB07FC4FEA1C4C0CFB0BF7B0EBC740F1
:100FB00072EB573203FB0CF734BFA2EBC742B2EB24
:100FC000C74261EB57310CFB0EF7B0EBC70072EB79
:100FD00057720CFB08F734BFA2EBC702B2EBC70293
:100FE00061EB577115EB4C254FEA816141EA921193
:100FF0004FEA82624FEAD13742EA901206FB07FCC1
:1010000044F100044FEA80604FEA1C4C0CFB0BF7E4
:10101000D21B03FB0CF761EB07010CFB0EF7B0EBE7
:10102000074072EB17420CFB08F734BFA2EB0742F4
:10103000B2EB074261EB174115EB1C154FEA81310A
:1010400041EA92414FEA823242EA90424FEA8030CE
:101050004FEA0C7644F1000448EA03434EEA0B4899
:101060004FF0000EB2EB080C71EB030724BF624691
:1010700039464EEB0E0E4FF0000B0018524149411D
:101080004BEB0B0BB2EB080C71EB03077BF1000B86
:1010900024BF624639464EEB0E0E4FF0000B00188F
:1010A000524149414BEB0B0BB2EB080C71EB0307C0
:1010B0007BF1000B24BF624639464EEB0E0E51EA1F
:1010C000020718BF46F0010616EB0E7655F1000236
:1010D00054F1000103D5BDE88901BDE80088BDE8F1
:1010E0008901BDE80048B619524141EB0101A3F165
:1010F0000103704780807F7E7D7C7B7A797877766C
:1011000076757473727171706F6E6E6D6C6C6B6AE4
:101110006A69686867666665646463636261616082
:10112000605F5F5E5E5D5D5C5C5B5B5A5A595958FF
:101130005857575656555555545453535252525169
:10114000515050504F4F4F4E4E4D4D4D4C4C4C4BBF
:101150004B4B4A4A4A494949484848474747474606
:101160004646454545444444444343434342424242
:1011700042414141002B9C4630D477002BD01CB516
:101180004FEA370703B44FF010004FF01001BAF1E7
:10119000000F06D0BCF1000FDCBF40F0080040F0AB
:1011A00008014FF000000FBCBDE810400BF1010B2F
:1011B000BBF1010F08BF5FEA170722BF12F101025E
:1011C00011F101014FF0004143F1000300F0004034
:1011D00043EA00007047F9D35708D0E746EA0646CD
:1011E00013F1400F4FEA16461FDD13F1200FDFBF4A
:1011F00016430A46002120335B42BED0C3F12007CC
:1012000046EA064602FA07F74FEA164646EA070696
:10121000C3F1200722FA03F201FA07F721FA03F1DA
:101220004FF0000342EA0702A7E746EA020646EA51
:1012300006464FEA164646EA0106BCBF46EA06469F
:10124000360C4FF000034FF000024FF0000194E71E
:101250002DE9804C9A46934670B491E8380007C84F
:1012600031EA400C48BF34EA430C03D5FFF7E6FDF2
:10127000FFF780FFF0BCBDE8008C2DE9804C9A465A
:10128000934670B491E8380007C810F0804F08BF4B
:1012900013F0804F03D100F005F8FFF76BFFF0BCAF
:1012A000BDE8008C20F07F4780EA030023F07F4CEC
:1012B00007EB0C03A3F57C5300F00040A3F1FE0301
:1012C00092F0000F00F0B38095F0000F00F07780EF
:1012D0002DE901494FEA11404FEA144621EA00483E
:1012E00000FB06FC24EA064708FB06F607FB08F8A5
:1012F00000FB07F718EB06484CEB164C4FEA124B75
:1013000018EB07484FEA15464CEB174022EA0B4E04
:101310000BFB06FC25EA06470EFB06F607FB0EFE56
:101320000BFB07F71EEB064E4CEB164C4FF000067E
:101330001EEB074E4CEB174B18EB0B0840F100006F
:1013400018EB0E0B58EB000840F100008F1A4FF01D
:1013500000013CBFC943661B14BFB5EB040C002160
:101360003CBFC943F61B4FEA17444EEA8E0E27EAEC
:1013700004454FEA1C4704FB07622CEA074C05FBB7
:1013800007F70CFB05F604FB0CFC16EB074642EBDB
:10139000174216EB0C4642EB1C421BEB060658EBC1
:1013A0000202414146EA9E0601D5BDE80189B6190F
:1013B000524141EB0101A3F10103BDE801894FEA6C
:1013C00014454FEA114724EA054621EA074C05FB7C
:1013D00007F406FB07F70CFB06F105FB0CFC11EB11
:1013E000074144EB17444FEA124711EB0C4144EB21
:1013F0001C4422EA074C05FB07F206FB07F70CFB2F
:1014000006F605FB0CFC16EB074642EB174216EB03
:101410000C4642EB1C456A1854F1000148BF704766
:10142000B619524141EB0101A3F10103704795F058
:10143000000F37D04FEA11424FEA144721EA024623
:1014400024EA074C02FB07F106FB07F70CFB06F446
:1014500002FB0CFC14EB074441EB17414FEA154724
:1014600014EB0C4441EB1C4125EA074C02FB07F549
:1014700006FB07F70CFB06F602FB0CFC16EB074617
:1014800045EB174516EB0C4645EB1C42121951F182
:10149000000148BF7047B619524141EB0101A3F169
:1014A000010370474FEA14454FEA114724EA054605
:1014B00021EA074C05FB07F106FB07F70CFB06F2D8
:1014C0004FF0000605FB0CFC12EB074241EB174105
:1014D00012EB0C4251EB1C4148BF7047921841EB94
:1014E0000101A3F1010370471CB52C48006840F4CA
:1014F00080702A49086029481438006840F00100CB
:10150000264914390860012000210B460322CDE949
:1015100000100146224800F015F9204820380068E4
:1015200040F480701D49203908600846006820F4A6
:10153000807008604FF480301A49086000201A4912
:1015400048608860084640684860084640684860CF
:101550000846806820F0020088600846806820F411
:10156000006088600846806888600846C06A20F489
:101570007000C8620846C06AC8620846006920F068
:10158000070008610846006940F007000861084646
:10159000806840F0010088601CBD000044380240B3
:1015A0000000024004230140002001401CB53048E7
:1015B000006840F000502E4908602D48103800683F
:1015C00040F001002A4910390860012000210B4633
:1015D0000322CDE900101021264800F0B3F80120C5
:1015E00000210B460322CDE900102021214800F004
:1015F000A9F82148006840F001001F49086008462A
:10160000006840F00200086008460068086008466C
:1016100000680860084600680860084600680860BE
:101620000846006808600020134908310860124825
:10163000006840F40040104908600846006840F423
:101640008030086008460068086008460068086046
:101650000846006808600846006808600846006898
:101660000860002004491431086000F007F81CBD30
:1016700040380240000002400074004010B52DEDDB
:10168000048B0446204604F073F841EC180B9FEDE0
:10169000160B53EC102B51EC180B03F091FE41ECA0
:1016A000180B9FED130B53EC102B51EC180B04F09F
:1016B000AFF841EC190B9FED100B53EC102B03F01E
:1016C0007FFE41EC180B51EC180B04F00DF80C499F
:1016D000086051EC180B04F007F809490C31086058
:1016E000BDEC048B10BD00000000000000408F40E6
:1016F000000000000000B0406666666666660A404C
:101700000874004030B5CC1000F1200353F82430A9
:101710004C07E50E0F24AC40A343CD1000F120048C
:1017200044F82530CC1000F1200353F824304C0746
:10173000E40E02FA04F42343CD1000F1200444F82F
:10174000253030BD2DE9F0470C46DDE90867002162
:1017500000258C4600BF60E04FF0010808FA01F553
:1017600004EA050CAC4557D1D0F800804FEA410A95
:101770004FF0030909FA0AF928EA0908C0F80080BD
:10178000D0F800804FEA410902FA09F948EA09084D
:10179000C0F80080012A01D0022A27D1D0F80880A1
:1017A0004FEA410A4FF0030909FA0AF928EA090841
:1017B000C0F80880D0F808804FEA410906FA09F914
:1017C00048EA0908C0F80880D0F804904FF00108F2
:1017D00008FA01F829EA0809C0F80490D0F8048052
:1017E00003FA01F948EA0908C0F80480D0F80C802F
:1017F0004FEA410A4FF0030909FA0AF928EA0908F1
:10180000C0F80C80D0F80C804FEA410907FA09F9BA
:1018100048EA0908C0F80C80491C10299CD3BDE88F
:10182000F087000001460D48406B20F01F000B4A76
:1018300050631046406B084350631046806840F088
:101840008040906000BF0548006800F0020000285A
:10185000F9D00248C06C80B27047000000200140FF
:101860002DE9F04107460C460025002608E03846E1
:10187000FFF7D8FF0544022002F0E8FD701CC6B255
:10188000A642F4DBB5FBF4F080B2BDE8F0810000C5
:101890001CB50A48006840F00400084908600120AF
:1018A000032100230246CDE9001008210448FFF778
:1018B00049FF0120034908601CBD00003038024088
:1018C000000802408C0241422DE9F041074688465B
:1018D00014461D46284600F033F8C5F1040007FA07
:1018E00000F60F20284100EA0800064306F00F0624
:1018F000E21704EBD2625211920002F1E022D2F818
:1019000000212146E31704EBD3635B11A4EB431CD6
:10191000012303FA0CF31A432046E31704EBD363C5
:101920005B119B0003F1E023C3F800210348005D35
:1019300040EA061001490855BDE8F08100E400E0E6
:101940000146072323EA01021202054B18684FF6ED
:10195000FF031840034B18431043014B18607047B6
:101960000CED00E00000FA054A0A52020243014B66
:101970001A60704708ED00E010B500F015F801F0AE
:10198000DDF901F005FA01F025FA01F0ADF901F0F9
:101990006DF901F0B9FA01F05DFA01F083FA00F097
:1019A000A3FF00F007F810BD002001490880704730
:1019B000EC0000207047000006480078012808D19C
:1019C00005480078FF2804D203480078401C0249EB
:1019D00008707047B2000020A500002010B5002458
:1019E0001A480078012830D1FEF750FC0446184808
:1019F000007820B116480078401E15490870144838
:101A00000078F8B913480078E0B901F0DFFA12481D
:101A10001249097850F82100114908600F480078F0
:101A20001049097888420DD00D480068806B401C31
:101A30000B49096888630C480068401C0A49086023
:101A4000FEF744FC2046FEF725FC10BDB200002046
:101A5000A5000020A600002010200020A8000020E3
:101A6000C0000020A70000208C0000202DE9F041DC
:101A700006460F464FF000081F48007810B10020BE
:101A8000BDE8F081FEF702FC80461C48056800684E
:101A900020B11A4800684068184908604046FEF7BF
:101AA000F9FB3DB3FEF7F2FB804615480468C4B16C
:101AB00000680068124908604046FEF7EBFB66606C
:101AC00006EB8700A060E6602661A7820020E08226
:101AD00002202870002028816C60284601F0B8F8A8
:101AE00008E0064800686860044805604046FEF764
:101AF000D1FB00252846C3E7A50000209000002068
:101B0000CC0000202DE9F0470746884615464FF0E7
:101B100000093878022804D0012028700020BDE890
:101B2000F0873C48007818B1022028700020F6E7C2
:101B30003948007818B10D2028700020EFE7FEF733
:101B4000A5FB81467C68E08A98B12169081D206167
:101B50000E68E08A401EE082A1682069884201D1B7
:101B6000606820614846FEF795FB002028703046EB
:101B7000D5E72A48006890F8300040F00400274973
:101B8000096881F8300000202449096881F8310093
:101B900022480068C0F82C80384601F01BF84846FF
:101BA000FEF778FB01F0D8F9FEF770FB81461B4881
:101BB000006890F8310020B101280DD002280AD128
:101BC00005E016480068066A002028700DE000262F
:101BD0000E20287009E000BF39461048006800F068
:101BE000E3FF00260A20287000BF00BF00200B4939
:101BF000096881F830000949096881F8310007490E
:101C00000968C8610549096808624846FEF742FB51
:101C1000304684E7A5000020A6000020B800002080
:101C20002DE9F04105460E4600272878022802D00B
:101C30000120BDE8F081FEF729FB0746A87A60B1D4
:101C4000002304223146284600F06CFF3846FEF798
:101C500021FB01F081F90020EBE76C68E08AA18AA2
:101C6000884204DB3846FEF715FB1E20E1E7E168F9
:101C7000081DE0600E60E08A401CE082D4E902109A
:101C8000884201D16068E0603846FEF703FB00201F
:101C9000CFE7000010B500240B480078012811D1CF
:101CA000FEF7F4FA04460948007840B9084800787D
:101CB000FF2804D206480078401C054908702046D9
:101CC000FEF7E8FA10BD0000B2000020A5000020D9
:101CD000A600002010B5002413480078012821D167
:101CE000FEF7D4FA044611480078C0B10F480078D6
:101CF000401E0E4908700846007860B90C4800780C
:101D000028B92046FEF7C6FA01F026F90AE0204677
:101D1000FEF7C0FA06E02046FEF7BCFA02E02046D5
:101D2000FEF7B8FA10BD0000B2000020A6000020A7
:101D3000A500002070B5054600260F48007808B1C0
:101D4000002070BDFEF7A2FA06460C480468006841
:101D500020B10A4800684068084908603046FEF72C
:101D600099FA3CB103202070258100206060204654
:101D700000F06EFF2046E4E7A50000209000002060
:101D80002DE9F04105460E46144600272878032821
:101D900003D001202070BDE8F0813148007810B1F7
:101DA00002202070F7E72F48007810B10D20207036
:101DB000F1E7FEF76BFA0746288940B12889401EF3
:101DC00028813846FEF766FA00202070E3E72648AF
:101DD000006890F8300040F001002349096881F85C
:101DE000300000202049096881F831001E48006851
:101DF000C662284600F0EEFE3846FEF74BFA01F0C8
:101E0000ABF8FEF743FA07461748006890F8310030
:101E100020B1012809D0022806D102E0002020705C
:101E20000BE00E20207008E000BF29460E48006835
:101E300000F0BAFE0A20207000BF00BF00200A494F
:101E4000096881F830000849096881F831000649BD
:101E50000968C8613846FEF71DFA00BF9BE700001D
:101E6000A5000020A6000020B800002070B50446A0
:101E700000252078032801D0012070BDFEF706FA66
:101E80000546A07A60B1002301221946204600F0E1
:101E900049FE2846FEF7FEF901F05EF80020ECE767
:101EA00020894FF6FF71884207D22089401C20818B
:101EB0002846FEF7EFF90020DFE72846FEF7EAF9AB
:101EC0003320DAE710B50B48007890B901F07EF8BE
:101ED000094800780949087009480749097850F805
:101EE0002100084908600846006807490860FEF7B5
:101EF000D4F910BDB2000020A8000020A7000020E7
:101F000010200020C0000020B800002010B50024E0
:101F1000022000F02BFBFEF7B9F9044600200B4924
:101F200008602046FEF7B6F9142000F01FFBFEF70C
:101F3000ADF90446054800680549086001200549D7
:101F400008702046FEF7A6F910BD0000B40000207E
:101F50009C000020A4000020704700002DE9FE4FE7
:101F600006460F4690461C464FF00009FEF78EF9D4
:101F700081461F48007828B14846FEF78BF93C207F
:101F8000BDE8FE8F1B4850F8240060BB01201949B2
:101F900041F824004846FEF77DF9002342463946C1
:101FA000304600F0B5F982460020009001900346CB
:101FB000024651460290204601F01EF8054635B90A
:101FC0000D48007801280CD100F0C6FF09E0FEF7AB
:101FD0005DF981460020074941F824004846FEF794
:101FE00059F92846CCE74846FEF754F92820C7E7B8
:101FF000A500002010200020B20000202DE9F04FA5
:1020000085B081468A4693461C46DDE90F78129DCD
:1020100000200390FEF73AF903902348007830B18E
:102020000398FEF737F93C2005B0BDE8F08F1F4854
:1020300050F8240088BB01201C4941F82400039873
:10204000FEF728F92A464146384601F0F1F82B46BA
:102050005A465146484600F05BF904901198CDE984
:10206000008002953A4620460E9B049900F0C4FF7A
:10207000064636B90E48007801280CD100F06CFFF6
:1020800009E0FEF703F903900020084941F8240015
:102090000398FEF7FFF83046C6E7FFE70398FEF720
:1020A000F9F82820C0E70000A5000020102000203B
:1020B000B2000020704700002DE9F04105460027DE
:1020C0004748007810B14020BDE8F0813F2D01D194
:1020D0003E20F9E7FEF7DAF80746FF2D03D1414825
:1020E000006890F83250404850F8254024B93846EE
:1020F000FEF7D0F84320E7E7012C04D13846FEF77D
:10210000C9F83D20E0E714F8340F3849085C6178DD
:1021100088432178354A505414F834091146085C34
:1021200030B994F836103248007888433049087046
:10213000E06918B12046E16900F036FD666A16B123
:10214000304600F0BFFD0020E06284F8300084F8E3
:10215000310028480078FF2804D226480078401C27
:10216000244908703846FEF795F800F0D9FCFEF7D0
:102170008DF807461F48007820B11E480078401EA1
:102180001C490870204600F041F81B480078401EAA
:10219000194908700020144941F82500A06930B998
:1021A00000206169886115496069086005E0D4E92B
:1021B00005014861D4E90510886111480068606133
:1021C0000F4804600FA0E0643846FEF763F80E483D
:1021D0000078012801D100F0BFFE002074E7000064
:1021E000A5000020B800002010200020AA00002038
:1021F000A9000020A6000020B3000020C400002099
:10220000BC0000203F000000B20000207047704773
:102210002DE9F04106460F4614464FF000081548D8
:10222000007818B112202070BDE8F081FEF72EF87A
:102230008046FF2E03D11048006890F832600F48A6
:1022400050F826502DB94046FEF724F84320207060
:10225000EAE7012D05D14046FEF71CF84320207027
:10226000E2E7EF644046FEF715F80020207000BF5B
:10227000DAE70000A5000020B800002010200020B0
:10228000704770472DE9F04707460D464FF0000AAA
:10229000002028606860FDF7F9FF8246FF2F03D118
:1022A0001948006890F83270184850F827402CB947
:1022B0005046FDF7EFFF4320BDE8F087012C04D125
:1022C0005046FDF7E7FF4320F6E7207C00F00100D1
:1022D00020B95046FDF7DEFF4520EDE70026D4F893
:1022E0000C90D4F808805046FDF7D4FF00E0761C2F
:1022F00058F8041B0029FAD0B0002860A9EB0600AA
:10230000800068600020D7E7B8000020102000207F
:1023100070B5044610460026051F28462E604FF46F
:102320008056051F28462E601526051F28462E605C
:102330001426051F28462E601326051F28462E60EA
:102340001226051F28462E601126051F28462E60DE
:102350001026051F28462E600926051F28462E60D8
:102360000826051F28462E600726051F28462E60D2
:102370000626051F28462E600526051F28462E60C6
:102380000426051F28462E600326051F28462E60BA
:102390000226051F28462E600126051F28462E60AE
:1023A0000026051F28462E604FF080750560051F2A
:1023B00028462C60414E051F28462E604FF01236ED
:1023C000051F28462E604FF00336051F28462E6055
:1023D0004FF00236051F28462E607610051F28464E
:1023E0002E60051F284629603126051F28462E60CD
:1023F0003026051F28462E602926051F28462E60F8
:102400002826051F28462E602726051F28462E60F1
:102410002626051F28462E602526051F28462E60E5
:102420002426051F28462E602326051F28462E60D9
:102430002226051F28462E602126051F28462E60CD
:102440002026051F28462E601926051F28462E60C7
:102450001826051F28462E601726051F28462E60C1
:102460001626051F28462E604FF01136051F2846F8
:102470002E604FF01036051F28462E604FF00936AB
:10248000051F28462E604FF00836051F28462E608F
:102490004FF00736051F28462E604FF00636051F01
:1024A00028462E604FF00536051F28462E604FF057
:1024B0000436051F28462E6070BD00005531000807
:1024C0002DE9F04105464FF00008FDF7DFFE80469C
:1024D000FF2D05D12048006890F83250012608E011
:1024E0001D48006890F83200A84201D1012600E0A2
:1024F00000261A4850F825402CB94046FDF7CAFE80
:102500004820BDE8F081012C04D14046FDF7C2FE11
:102510004320F6E794F834701148C05D94F8351004
:1025200088430F49C8550846C05D30B994F8361045
:102530000C48007888430B49087094F8300040F04C
:10254000080084F830004046FDF7A4FE012E01D1BA
:1025500000F002FD0020D4E7B80000201020002089
:10256000AA000020A90000207047000070B50546B1
:1025700000261748007800B170BD1648007800B1F9
:10258000FAE71DB3FDF782FE06461348006890F88F
:1025900034401248005D1049096891F835108843AD
:1025A0000E4908550846005D40B90B48006890F890
:1025B00036100B48007888430949087006480068BF
:1025C000C5623046FDF766FE00F0C6FC00BFD3E7EB
:1025D000A5000020A6000020B8000020AA000020CE
:1025E000A900002070B5002600F072F8FDF74EFE3D
:1025F000064631480068401C2F4908603046FDF708
:1026000049FE2E480078012853D12D48007820B18A
:10261000012804D0022809D103E001250BE00025A0
:1026200009E0012501202649087004E00125002069
:102630002349087000BF00BF05B970BD2148046878
:1026400033E0FDF723FE0646E06A50B3E06A401E21
:10265000E062E06A28BB94F8300000F0370040B137
:1026600014F8300F00F0C800207001206070303C7A
:1026700002E0002084F8310094F8300000F00800F7
:1026800078B93434A0781049097808430E490870A5
:1026900020780E49085C6178084314F834190B4A15
:1026A000505464693046FDF7F5FD94F832003F2838
:1026B000C7D100BFC1E70000D0000020B200002059
:1026C000C8000020C4000020A9000020AA000020AB
:1026D00010B507480088401C054908800846008856
:1026E000022803D30020088000F036F810BD000057
:1026F000EC0000202DE9F05F06460F469046994613
:10270000DDE90AAB0C9D1348007820B18B202870BE
:102710000020BDE8F09FFFF7BDFA00F0C5F80446C1
:102720002CB9FFF7D7FA862028700020F1E70120A6
:1027300084F82500A661E76184F82480C4F8049039
:10274000C4F808A0C4F820B0FFF7C4FA002028702D
:102750002046DEE7A500002010B503480068FFF71B
:1027600085FB0446204610BDE000002070B50546FC
:102770000C462878642803D089202070002070BD82
:102780001A48007818B18B2020700020F7E7FFF777
:1027900081FA95F82500E8B1012810D002280FD061
:1027A00003281DD1284600F099F90021284600F0A1
:1027B0001FF9FFF78FFA002020700120DFE700BF2C
:1027C0000021284600F014F9FFF784FA0020207059
:1027D0000120D4E7FFF77EFA872020700020CEE7A3
:1027E000FFF778FA8D2020700020C8E7A5000020B0
:1027F0002DE9F04105460F4690461C46287864288E
:1028000004D0892020700020BDE8F08125480078A0
:1028100018B18B2020700020F6E7FFF73BFA95F8FF
:102820002500002832D001282AD0022827D00328EA
:1028300032D1284600F052F900202070B7B1032FA2
:1028400002D0042F13D108E06E681EB12846A96893
:10285000B04701E08F2020700CE06E681EB1414649
:102860002846B04701E08F20207003E002E084207A
:10287000207000BF00BFFFF72DFA0120C4E700BFA2
:10288000FFF728FA8E2020700120BDE7FFF722FA1B
:10289000872020700020B7E7FFF71CFA8D202070FA
:1028A0000020B1E7A50000200C48006808B900200E
:1028B00070470A480168094AC86810600020C8606B
:1028C000086107480088401C054A108005480088B8
:1028D000401E044A10800846EAE70000E400002099
:1028E000D6000020D40000202DE9F0414FF42071E3
:1028F000224800F0FFFA4021214800F0FBFA0025B1
:1029000014E0681C86B205EB85001C4901EBC0048D
:1029100006EB860001EBC00764202070002084F8DD
:102920002500E76017A02062681C85B20F2DE8D350
:1029300005EB8500114901EBC004642020700020E4
:1029400084F82500E0600FA0206200200E49086096
:102950000E49088010200E49088008480D4908607B
:102960000120FFF7E7F90C4908600020FFF7E2F9C2
:102970000A49086000F014F8BDE8F08178250020CD
:10298000F82900203F000000D8000020D6000020D9
:10299000D4000020E4000020DC000020E000002043
:1029A00000B587B00320002180220A4BCDE9013217
:1029B000CDE903104FF6FD700B46074A009007481B
:1029C000FFF71CFB06AA06A10020FFF721FC07B0B9
:1029D00000BD0000F8270020F42900205D2A00082F
:1029E00075432F4F532D494920546D72000000004C
:1029F00070B50B46032580F82550012B05D1154EE7
:102A0000C5693668354445610CE085692DB9114EBC
:102A1000C56936683544456104E00E4E85693668FF
:102A200035444561057D05F007040B4D05EBC401F8
:102A30000D682DB908600025C56001258D8006E070
:102A40000A680860C26010618D886D1C8D80002549
:102A5000056170BDD8000020F829002008B500BF2E
:102A600000BF6A4600211A480068FFF789F9FFF79E
:102A700011F918480068401C16490860084600789B
:102A800000F00708144800EBC8073C681AE0E66845
:102A9000104960690968884213D1204600F01EF889
:102AA00094F82400022804D101212046FFF7A0FF5A
:102AB00002E0022084F82500656815B12046A1686F
:102AC000A8473446002CE2D1FFF704F9C9E700001B
:102AD000E0000020D8000020F829002030B5057D56
:102AE00005F007040D4D05EBC4031D68854205D1B3
:102AF000C168196039B100250D6104E00169C2683F
:102B0000CA6002B11161012580F825500025C56019
:102B100005619D886D1E9D8030BD0000F829002054
:102B2000704700002DE9F04F05460F469046994644
:102B3000A87A19490E5C05F10B00805D11F800B010
:102B40000BEBC60000F0FF0A144850F82A400020A2
:102B50002034E0602760207C20EA0800207484F89C
:102B60001190207C203C00F0080068B994F83600F1
:102B70000B49097808430A4908700A48805D94F8AF
:102B800035100843074988552946204600F00CF8BF
:102B90005046BDE8F08F0000DA5C000810200020ED
:102BA000A9000020AA00002010B590F8342001F1FF
:102BB0000B039B5C90F83540A34301F10B04A35435
:102BC00023469B5C23B98B7A90F83640A3438B72E3
:102BD00010BD000010B51B4A1268D061194A126876
:102BE00092F8343000F10B02D25C164B1B6893F85C
:102BF00035301A43134B1B6893F8344000F10B0334
:102C00001A55827A0F4B1B6893F836301A4382723A
:102C10000C4A126892F834100B4A525C094B1B683C
:102C200093F835309A43084B5A541A46525C42B9CD
:102C3000044A126892F83630044A12789A43034BD9
:102C40001A7010BDB8000020AA000020A9000020C2
:102C5000014600228A72002005E0002301F10B02E8
:102C60001354421CD0B20828F7D370472DE9F04125
:102C70005021114800F03EF900250DE0681C86B295
:102C80000D4800EB051400EB06170020207067606C
:102C90000AA0E060681C85B2042DEFD3064800EB63
:102CA000051400202070606004A0E0600248044920
:102CB0000860BDE8F0810000C01B00203F0000005C
:102CC0009400002030B501464A6808682AB9CC68EB
:102CD000606028B10025456002E0106000B14260EC
:102CE0008B6800255D6230BD70B5C821114800F0C9
:102CF00001F900230FE0581C85B203EB83000D4956
:102D000001EB800405EB850001EB800600202070BC
:102D10006660581C83B2092BEDD303EB8300054991
:102D200001EB8004002020706060084602490860C2
:102D300070BD0000F81A00209000002000200A4911
:102D400008600A4908700A4908700A4908700A4967
:102D500008700A4908600A4908600A4908600A4977
:102D600008600A4908707047D0000020A5000020C4
:102D7000A6000020B3000020B20000208C0000203C
:102D8000B4000020A00000209C000020A40000202F
:102D900000210A4A1170002004E00021084A115461
:102DA000411CC8B20828F8D30021064A1170064A0F
:102DB0001170064A1160064A11607047A900002090
:102DC000AA000020A7000020A8000020C0000020CA
:102DD000B800002070B54FF47C71194800F08AF8F3
:102DE0004FF48071174800F085F8002413E0601C50
:102DF000C5B2C4EBC40000EB4000114901EB8003F5
:102E0000C5EBC50000EB400001EB80065E610EA043
:102E1000D864601CC4B20B2CE9D3C4EBC40000EB33
:102E20004000074901EB80030020586106A0D864E8
:102E300000200649086002480549086070BD00008E
:102E400010210020102000203F000000C4000020BE
:102E5000BC00002000B587B00320002180220A4B6F
:102E6000CDE90132CDE903104FF6FF703F23074A49
:102E700000900748FFF7C2F806AA06A13F20FFF717
:102E8000C7F907B000BD0000101E00200C20002074
:102E90002D31000875432F4F532D49492049646C4B
:102EA0006500000000B587B00320002180220A4B96
:102EB000CDE90132CDE903104FF6FE703E23074AFB
:102EC00000900748FFF79AF806AA06A13E20FFF7F0
:102ED0009FF907B000BD0000101C00200C1E002050
:102EE0006D31000875432F4F532D494920537461AC
:102EF0007400000004E0002200F8012B4A1E91B289
:102F00000029F8D1704700002DE9F04178211048E0
:102F1000FFF7F0FF00240DE0601C86B204EB4400D4
:102F20000B4901EBC00506EB460001EBC0072F6023
:102F3000601C84B2042CEFD304EB4400044901EB81
:102F4000C00500202860084602490860BDE8F081FD
:102F500000250020CC00002010B50024FDF796F9D4
:102F6000044613480078F8B912480078E0B900F038
:102F70002DF811481149097850F8210010490860CE
:102F80000E4800780F49097888420DD00C48006837
:102F9000806B401C0A49096888630B480068401C24
:102FA00009490860FDF78BF92046FDF773F910BD5C
:102FB000A5000020A600002010200020A80000206E
:102FC000C0000020A70000208C0000200649074A0E
:102FD0001278885C0649095C034A515C01EBC00128
:102FE000044A117070470000DA5C0008A900002054
:102FF000AA000020A80000202DE9F84F05460F4642
:1030000090469946DDE90AAB00200090FDF73EF9B5
:1030100000903F480468002C74D0183454F8040C15
:103020003B4908600098FDF735F944F8187CA5760F
:10303000002020766076606144F814BC44F80CAC43
:1030400044F8108C0C9824F8080C24F8069C0020F6
:10305000E077E810207705F00700E076217F012077
:103060008840A077E17E0120884060770020606082
:10307000E060A0602062A0626062E062206325A040
:103080006063183C002606E0002104F1500040F87F
:103090002610701CC6B2002EF6D02046FEF75CFF4C
:1030A0002046FFF707F8FDF7F1F800901A4840F8BE
:1030B00025401A48006860610020A0611748006838
:1030C00010B1164800688461144804603434A07854
:1030D0001349097808431249087020781149085C9F
:1030E0006178084314F834190E4A50540E48007899
:1030F000401C0D4908700098FDF7CCF80020BDE891
:10310000F88FFFE70098FDF7C5F84220F7E70000C9
:10311000BC0000203F00000010200020C400002060
:10312000A9000020AA000020B3000020002400BF56
:1031300000BFFDF7ABF8044605480068401C044991
:1031400008602046FDF7A6F8FFF761F8F1E70000F8
:10315000B400002010B504480068FFF791F8FF2084
:10316000FEF7AAFF10BD0000B8000020002400BF39
:1031700002E02820FFF7FAF9194800780028F8D073
:10318000184800686421B0FBF1F016490860084651
:10319000006828B9002014490870FF20FFF790F953
:1031A00000BFFDF773F80446104800681049086036
:1031B00000200E4908602046FDF76CF80C480068B6
:1031C00008490968B0FBF1F0C0F1640006490870D5
:1031D000FFF757F800F00EF81420FFF7C7F9E0E703
:1031E000A40000209C00002098000020B4000020D3
:1031F000A00000207CB5002514E069462846FFF7B2
:1032000041F8064666B9094850F8254044B1012CFA
:1032100006D0D4E9020100EB810060640198A0644B
:10322000681CC5B23F2DE8D97CBD000010200020ED
:1032300002F0010343B102F002032BB102E0491E88
:10324000002308C00029FAD17047000070B5044679
:1032500041F28835280A12498870CD7011480068FB
:1032600030B9200E8871200CC871200A08724C7287
:103270000C48006840B16442200E09498871200C56
:10328000C871200A08724C720648006808B901200B
:1032900000E0002003490860014801F0A1FD70BD75
:1032A000230000205400002070B52DED068B04464D
:1032B000E088B0F5FA7F02DD4FF4FA71E180207802
:1032C00006287DD2DFE800F0F203326294C3E08882
:1032D0007A49486300208863E088642190FBF1F616
:1032E000304602F02EFA41EC1A0B9FED750B53ECB1
:1032F000102B02F08BFB41EC190B01F07BFF054614
:1033000002F06EFC41EC180B53EC182B6EA0FDF78D
:1033100023F8A06848B176A0A168FDF71DF82189BF
:1033200088B201F093F801F0D3FAC3E0E08876495F
:103330000860002075490860E088642190FBF1F680
:10334000304602F0FEF941EC1A0B9FED710B53EC85
:10335000102B02F05BFB41EC190B01F04BFF054613
:1033600002F03EFC41EC180B53EC182B6AA0FCF762
:10337000F3FFA06848B172A0A168FCF7EDFF2189B6
:1033800088B201F063F801F0A3FA93E0E088724993
:103390004863002071490860E088642190FBF1F6E1
:1033A000304602F0CEF941EC1A0B9FED6D0B53EC59
:1033B000102B02F02BFB41EC190B01F01BFF00E07E
:1033C00074E0054602F00CFC41EC180B53EC182B92
:1033D00065A0FCF7C1FFA06848B16DA0A168FCF72B
:1033E000BBFF218988B201F031F801F071FA61E088
:1033F000E0886D49886300204863E088642190FB81
:10340000F1F6304602F09DF941EC1A0B9FED670B87
:1034100053EC102B02F0FAFA41EC190B01F0EAFE22
:10342000054602F0DDFB41EC180B53EC182B61A0B4
:10343000FCF792FFA06848B168A0A168FCF78CFF78
:10344000218988B201F002F801F042FA32E0E08806
:10345000554908640020C863E088642190FBF1F6B8
:10346000304602F06EF941EC1A0B9FED620B53EC03
:10347000102B02F0CBFA41EC190B01F0BBFE054614
:1034800002F0AEFB41EC180B53EC182B5BA0FCF7E1
:1034900063FFA06848B163A0A168FCF75DFF2189C4
:1034A00088B200F0D3FF01F013FA03E063A0FCF749
:1034B00053FF00BF00BFBDEC068B70BD0040014054
:1034C000B81E85EB51B8AE3F4D6F746F722031203E
:1034D000726F74617465732061743A2025332E32E3
:1034E0006620566F6C746167657320200D0A0000BA
:1034F0004D6F746F72203120726F74617465732028
:103500002564206D730D0A003448014034440140A5
:10351000C3F5285C8FC2C53F4D6F746F7220322097
:10352000726F74617465732061743A2025332E3292
:103530006620566F6C746167657320200D0A000069
:103540004D6F746F72203220726F746174657320D6
:103550002564206D730D0A0000200040341C0040DB
:10356000B81E85EB51B89E3F4D6F746F72203320AB
:10357000726F74617465732061743A2025332E3242
:103580006620566F6C746167657320200D0A000019
:103590004D6F746F72203320726F74617465732085
:1035A0002564206D730D0A00000001409A999999D5
:1035B0009999B93F4D6F746F72203420726F7461A6
:1035C0007465732061743A2025332E326620566F5D
:1035D0006C746167657320200D0A00004D6F746F75
:1035E00072203420726F7461746573202564206DBD
:1035F000730D0A007B14AE47E17A943F4D6F746FF0
:1036000072203520726F74617465732061743A2082
:1036100025332E326620566F6C74616765732020E7
:103620000D0A00004D6F746F72203520726F746147
:10363000746573202564206D730D0A00506C6561FC
:10364000736520436865636B206D6F746F722049EA
:103650004420706172616D6574657273210D0A009A
:10366000F0B504460D4616461F461448006840F063
:1036700001001249086000201049083108600F4815
:1036800000680F4908400D4908600E48091D086090
:10369000081F006820F48020091F086000200749E7
:1036A0000C3108603B4632462946204600F01AF8A5
:1036B00000210846FEF758F9F0BD0000003802402E
:1036C000FFFFF6FE1030002410B5054800780128F1
:1036D00005D1FEF771F9FEF785FFFEF77FF910BD02
:1036E000B2000020F0B504460D46002100203D4EFA
:1036F000366846F480363B4F3E6001E04E1CB1B266
:10370000384E366806F400361EB941F6FF76B142EF
:10371000F4DB41F6FF76B14201D1012060E0314E89
:103720004036366846F080562E4F40373E602E4E6B
:10373000366846F440462C4F3E602A4E08363668BE
:1037400046F41446274F08373E60264E366826F06A
:103750008076244F3E6045EA84160127C7EB520766
:1037600046EA074646EA036646F480061D4F3F1DBB
:103770003E603E1F366846F080763F1F3E6000BFC9
:10378000184E366806F00076002EF9D0174E3668CF
:1037900046F48076154F3E603E46366846F4007625
:1037A0003E603E46366846F480663E603E46366879
:1037B00046F005063E600B4E0836366826F00306D6
:1037C000084F08373E603E46366846F002063E60C7
:1037D00000BF044E0836366806F00C06082EF8D1F5
:1037E000F0BD00000038024000700040003C024084
:1037F0007CB505460C462448006840F40030224958
:10380000086021481438006840F020001E4914392F
:1038100008600120032100230222CDE9001040218D
:103820001A48FDF78FFF032206211848FDF76AFFAB
:1038300017480560011F0C8015481438008840F0B7
:1038400060001349143908800846008840F00800D9
:1038500008800F480C38008840F001000C490C39F2
:1038600008800846008840F00200088008482C388C
:10387000008840F0800006492C39088008460088FE
:1038800040F0010008807CBD443802400014024032
:103890002C4401407CB505460C462448006840F4A1
:1038A00080202249086021481438006840F0200038
:1038B0001E49143908600120032100230222CDE9AA
:1038C000001080211A48FDF73DFF03220721184808
:1038D000FDF718FF17480560011F0C8015481438C4
:1038E000008840F0600013491439088008460088B9
:1038F00040F0080008800F480C38008840F00100B4
:103900000C490C3908800846008840F00200088005
:1039100008482C38008840F0800006492C3908807F
:103920000846008840F0010008807CBD4438024011
:10393000001402402C4801407CB505460C46244842
:10394000006840F080002249086021481038006873
:1039500040F020001E491039086001200321002397
:103960000222CDE9001001021A48FDF7EBFE092200
:1039700008211848FDF7C6FE17480560011F0C8096
:1039800015481438008840F0600013491439088045
:103990000846008840F0080008800F480C3800886E
:1039A00040F001000C490C3908800846008840F0BE
:1039B0000200088008482C38008840F08000064942
:1039C0002C3908800846008840F0010008807CBD42
:1039D00040380240001402402C1C00407CB50546D3
:1039E0000C461F48006840F480701D4908601C4860
:1039F0001038006840F02000194910390860012093
:103A0000032100230222CDE9001041021548FDF7F1
:103A100099FE092211461348FDF774FE1248C5624B
:103A200001460C85008B40F0600008830846008B3F
:103A300040F0080008830846008C40F0010008842C
:103A40000846008C40F0020008840846008840F0D8
:103A5000800008800846008840F0010008807CBD96
:103A60004038024000140240002000407CB505466A
:103A70000C464948006840F0010047490860464844
:103A80001438006840F010004349143908600120E0
:103A9000032100230222CDE900104FF4D4413F4816
:103AA000FDF750FE012209213C48FDF72BFE0122C3
:103AB0000B213A48FDF726FE01220D213748FDF77C
:103AC00021FE01220E213548FDF71CFE3448C56257
:103AD0000485008B40F06000314908830846008B64
:103AE00040F0080008830846008B40F4C04008837B
:103AF0000846008B40F4006008830846808B40F045
:103B0000600088830846808B40F008008883084660
:103B1000808B40F4C04088830846808B40F400606E
:103B200088830846008C40F0010008840846008C19
:103B300040F0020008840846008C40F01000088421
:103B40000846008C40F0200008840846008C40F4B1
:103B5000807008840846008C40F400700884084691
:103B6000008C40F4805008840846008C40F40050DB
:103B700008840846008840F08000088008460088D5
:103B800040F00100088006484430008840F40040BE
:103B9000A1F844007CBD00004438024000100240FF
:103BA000000001407CB504460D462A48006840F0FC
:103BB00001002849086027481038006840F00200DA
:103BC0002449103908600120032100230222CDE995
:103BD000001089022048FDF7B5FD01220A211E4888
:103BE000FDF790FD01220B211B48FDF78BFD4FF0E7
:103BF0008040C46201460D85808B40F06000888360
:103C00000846808B40F0080088830846808B40F48B
:103C1000C04088830846808B40F400608883084653
:103C2000008C40F4807008840846008C08840846A4
:103C3000008C40F4805008840846008C08840846B4
:103C4000008840F0800008800846008840F00100AD
:103C500008807CBD40380240000402407CB5044628
:103C60000D463A48006840F0080038490860374877
:103C70001038006840F00100344910390860012014
:103C8000032100230222CDE900100E213048FDF768
:103C900059FD022201212E48FDF734FD0222114672
:103CA0002B48FDF72FFD022203212948FDF72AFDAD
:103CB00028480460011F0D8026481438008840F40D
:103CC000C0402449143908800846008840F4006048
:103CD0000880081D008840F06000091D0880084623
:103CE000008840F0080008800846008840F4C04082
:103CF00008800846008840F400600880081D00889D
:103D000040F01000091D0880084600880880084619
:103D1000008840F4807008800846008808800846C3
:103D2000008840F4805008800846008808800948D0
:103D30002C38008840F0800006492C39088008465D
:103D4000008840F0010008807CBD0000403802403F
:103D5000000002402C0C004010B5FDF72DFE0E486F
:103D6000008800F0010098B10C48008840F4004041
:103D70000A4908800848008820F0010006490880A8
:103D800005481038008820F00100034910390880E8
:103D9000FDF724FE10BD0000101400408600002036
:103DA00070B505460C461248006840F020001049E6
:103DB000086010480560001F048000200D49083984
:103DC00008600C482038008840F00100094920397B
:103DD000088008482C38008840F0010005492C393B
:103DE00008800223372201210020FDF76DFD70BD00
:103DF000403802402C1400407CB505460C462C4847
:103E0000006840F480302A49086029481438006866
:103E100040F01000264914390860012003210023D6
:103E20000222CDE9001060212248FDF78BFC03221D
:103E300005212048FDF766FC032206211D48FDF7F9
:103E400061FC1D48C5620485008B40F060001A4982
:103E500008830846008B40F0080008830846008B62
:103E600040F4C04008830846008B40F4006008839B
:103E70000846008C40F0010008840846008C40F0A1
:103E8000020008840846008C40F0100008840846B0
:103E9000008C40F0200008840846008840F0800034
:103EA00008800846008840F0010008807CBD0000C2
:103EB00044380240001002400040014010B5FDF7B8
:103EC0007BFD4048008800F02000002876D03D4867
:103ED0008088C4B23C48008800F4004000286DD1BE
:103EE0003948008800F4804000284DD00A2C03D0C7
:103EF00000203549088061E03348008840F40040E4
:103F00003149088031484078AA2820D006DC0A28A8
:103F10000BD00B280FD00C2831D112E0BB281CD0BD
:103F2000CC2820D0DE282AD123E028492848006860
:103F3000FDF776FE23E0254925480068FDF770FE71
:103F40001DE0224922480068FDF76AFE17E01F497C
:103F500020480068FDF764FE11E01C491E48006817
:103F6000FDF75EFE0BE019491C480068FDF758FE9E
:103F700005E016491A480068FDF752FE00BF00BF71
:103F800000201149088019E00D2C06D10E48008848
:103F900040F480400C49088010E00B480088C0F3D2
:103FA0000D000A490C5408480088401C0649088046
:103FB00008460088C72801DD00200880FDF70EFDB7
:103FC00010BD00000010014084000020F016002009
:103FD0007000002074000020780000207C00002089
:103FE0008000002070B5FDF7E7FC1648008800F05F
:103FF000200018B31348001D0088C4B21249088875
:10400000411C114A118011490C54104600880A289D
:1040100014D1084680790006C97940EA01400B496D
:10402000097A40EA01200949497A40EA010529460E
:1040300007A0FCF791F9002003490880FDF7CEFCAA
:1040400070BD00000048004088000020EC1A0020ED
:10405000456E636F64657220706F736974696F6910
:104060006E3A25640D0A0D0A0000000010B5FDF738
:10407000A3FC1948008800F0200010B31648001D6A
:104080000088C4B21548008800F40040C8B913483D
:104090000088B0F5C87F15DA0020114908600F4884
:1040A000008838B90E482438008840F001000C49D7
:1040B0002439088009490888411C084A11800949A7
:1040C0000C5405E00548008840F40040034908808E
:1040D000FDF784FC10BD00000014014086000020A4
:1040E00024140040481900202DE9F0412DED028BE9
:1040F00080460E4615463446B4F5FA7F01DD4FF48E
:10410000FA7400EE104AB8EE400ADFED1B0A80EEAA
:10411000201A11EE107A384601F062FD41EC180BBE
:1041200053EC182B29461548FCF716F9691C14A006
:10413000FCF712F922484463002021498863214892
:1041400004600020204908602048046000202049C5
:1041500048632048446300201E4988630846C463BE
:1041600000200864A8B200F071F900F0B1FBBDECCA
:10417000028BBDE8F08100000000C842085F000823
:10418000536F206E6F7720796F7520686176652098
:10419000746F2077616974202564206D73206265D7
:1041A000666F726520747970696E6720696E206E23
:1041B000657720636F6D6D616E642E0D0A000000DF
:1041C000004001403444014034480140341C004068
:1041D00000200040000001402DE9F0472DED028B4A
:1041E0000746894616461D463446B4F5FA7F01DD7A
:1041F0004FF4FA74012F4FD0022F7DD100EE104AF8
:10420000B8EE400ADFED510A80EE201A11EE108A56
:10421000404601F0E5FC41EC180B53EC182B294605
:104220004B48FCF799F805EB8500411D4948FCF720
:1042300093F849488463002047494863A8B200F0D6
:1042400005F900204449886348634448046000201D
:1042500043490860A8B200F0F9F800203F4908601F
:104260003F4908603F48446300203F490860A8B2C6
:1042700000F0ECF800203B4948633B4908603B48AC
:104280008463002039494863A8B200F0DFF80020B9
:1042900036498863486353E000EE104AB8EE400A9E
:1042A000DFED2A0A80EE201A11EE108A404601F056
:1042B00097FC41EC180B53EC182B29462C48FCF7C3
:1042C0004BF805EB8500411D2248FCF745F82748CF
:1042D0008463002025494863A8B200F0B7F80020A5
:1042E0002249886348631F48446300201E490860D0
:1042F000A8B200F0ABF800E01EE0002019494863C6
:104300001949086015480460002015490860A8B2E2
:1043100000F09CF8002011490860114908600E481F
:10432000846300200C494863A8B200F08FF8002095
:1043300009498863486303E00EA0FCF70DF800BF4D
:1043400000BFBDEC028BBDE8F08700000000C84252
:10435000705E0008505F0008004001403448014092
:104360003444014000200040341C00400000014063
:10437000BC5E0008506C6561736520436865636BC3
:10438000206D6F746F7220466C6F77207761792093
:10439000706172616D65746572732831206F72206F
:1043A00032206F6E6C7929210D0A000003B4019848
:1043B0004100009850EAC12018BF04204A0D18BFE0
:1043C00040F0010040F2FF72B2EB515F08BF40F0D5
:1043D0000200012808BF052002B0704730380A28C3
:1043E00001D20120704700207047014600BF70478E
:1043F00010B54FF0E022126922F004024FF0E023E2
:104400001A61C31700EB5373C3F3C7030D4C23703A
:10441000C31700EB5373D91041F288325143052280
:10442000094B1A804FF0E022126942F002024FF06D
:10443000E0231A611A465161126942F001021A61C1
:1044400010BD0000660000206800002070B5044622
:104450000F480078A0B10F48007888B90E4800884E
:10446000844206DB0C48008894FBF0F5284600F0F7
:104470001DF80948008894FBF0F100FB114084B25C
:104480004FF47A7104FB01F000F016F870BD0000E3
:10449000B2000020A50000206800002010B5FDF744
:1044A000F9FB10BD10B5FDF715FC10BD10B50446A5
:1044B0002046FEF75BF810BD2DE9F04707460026C1
:1044C0004FF0E020D0F814901048007807FB00F877
:1044D000FFF7E4FF4FF0E020856911E04FF0E020A6
:1044E0008469AC420CD0AC4202D2281B064403E0E3
:1044F000A9EB0400284406442546464500D300E0C5
:10450000ECE700BFFFF7CEFFBDE8F08766000020B4
:10451000F0B52DED068B83B004466D462078FF285C
:1045200073D1A079EE28FBD160780F2875D006DC16
:104530000A280BD00B281CD00C2868D127E0AA2809
:1045400035D0BB2864D0CC2879D162E0A07828701F
:10455000E078A880207900EB0011C1EBC011E98060
:104560006079642110FB01F1A9602846FEF79CFEEA
:1045700069E06679642716FB07F3267906EB0617D0
:10458000C7EBC612E178A078FFF726FE5BE0A078C3
:10459000A5280BD16379642613FB06F2237903EB7C
:1045A0000316C6EBC311E078FFF79EFD4BE0A07841
:1045B00001F0DEF841EC190B9FED250B53EC102BAD
:1045C00001F026F941EC180B01F08EF886B2304666
:1045D000FDF754F8A07801F0CBF841EC1A0B9FEDF1
:1045E0001E0B53EC102B01F013F941EC190B9FED4E
:1045F0001C0B53EC102B00F0E3FE41EC180B53ECBA
:10460000182B19A0FBF7A8FE1DE01DE005E016E041
:1046100019E0A07800F0CCFA15E0A07822280AD1A1
:10462000E078332807D12079442804D160795528CF
:1046300001D100F04DF911A0FBF78EFE03E019A0A7
:10464000FBF78AFE00BF00BF03B0BDEC068BF0BDD8
:104650000000000000A053400000000000605D402A
:104660000000000000408F40536F66746E657373E6
:104670003A2025332E326656200D0A00416C6C20FC
:104680006D6F746F72732061726520666F726365FF
:104690006420746F2062652073746F70706564218C
:1046A0000D0A2000506172616D6574657273207728
:1046B000726F6E672120436865636B206974210DFA
:1046C0000A20000000BF054A128802F04002002ABA
:1046D000F9D0C2B2014B9A8070470000001001402F
:1046E0002DED088B73E0601CC4B20A20FFF7AEFE0C
:1046F000082C02D1012036490860642C67D10024BF
:104700000020334908601521FDF7AAF800EE100AD1
:10471000B8EE400A2F4880ED000A006801F060FA08
:1047200041EC1B0B9FED2C0B53EC102B01F070F8A0
:1047300041EC1A0B00F05EFD054601F051FA41EC28
:10474000190B9FED270B53EC102B01F061F841EC96
:10475000180B00F04FFD1F4908600846006801F083
:104760003FFA41EC190B9FED200B53EC102B01F09D
:104770004DF941EC180B9FED1E0B53EC102B01F083
:104780000BF814D31348006801F02AFA41EC190B16
:104790009FED150B53EC102B01F038F941EC180B81
:1047A0009FED130B53EC102B00F062FF04D19FED33
:1047B000120A084880ED000A0648006801F010FA65
:1047C00041EC180B53EC182B0CA0FBF7C5FD8AE746
:1047D0008C024142500000206666666666664A3F6B
:1047E000CFF753E3A59BF83F7B14AE47E17AC43F74
:1047F00000000000000000000000000046696E6735
:1048000065722050726573737572652025332E3280
:1048100066204E200D0A000010B507230222082151
:104820004FF4A870FEF71CFFA820FFF7E1FD4FF43E
:10483000E131542000F000FBFDF72AF8FCF7B6FE4A
:1048400000F014FA4FF41651542000F019FC1648E9
:1048500000F0DCFA4FF461312A2000F08FFB13489E
:1048600000F0BEFA4FF4FA70FFF7F0FD104800F0C8
:10487000B7FA4FF4FA70FFF7E9FD7D20FEF7E6FC8A
:104880000CA0FBF769FDFCF72FFE00F055FBFDF7D0
:1048900073F80A230C4A00210C48FDF75FFBFDF773
:1048A00011FB002010BD0000080000200F000020B8
:1048B000190000205468697320524F424F207365DD
:1048C0006E74210D0A0D0A00EC010020814A0008D7
:1048D0000020084948638863074908600749086061
:1048E0000749086007494863074948638863C86304
:1048F000086470470040014034440140344801409E
:10490000341C004000200040000001401FB500BFE3
:1049100000BF00BF03A82DA100222E4BCDE900212E
:10492000029002224FF496711E20FDF7E3FE2A4901
:10493000086003AB0022114627480068FDF758FFC6
:1049400043E003AA002125480068FDF7DBF8044690
:10495000A07801280ED1E07801280BD12049086009
:104960002049086003A91C480068FDF7FFFE1EA04F
:10497000FBF7F2FCA078022811D1E07802280ED1D2
:1049800001201749086002201649086003A912484F
:104990000068FDF7EBFE16A0FBF7DEFC12E0A07846
:1049A00080B9E07870B903AB002211460A4800686C
:1049B000FDF71EFF002010490860091D08600FA0C8
:1049C000FBF7CAFC0220FFF741FDBAE7746D7231B4
:1049D00000000000E54C00080000002078000020E6
:1049E0000400002044000020BFAAC0E40D0A00001B
:1049F000BFAAC8C80D0A00003C0C004050656C748A
:104A0000696572206C6F6F7020436F6D6D616E64AD
:104A10002073746F707065640D0A0D0A0000000049
:104A200008B500BF00BF00BF1BE06A4600210D486B
:104A30000068FDF767F804462046FFF769FD4FF46C
:104A4000FA70094908600020091D08601420FFF76A
:104A5000FDFC06A0FBF780FC002003490860091D4F
:104A60000860E2E7740000203C0C0040BFAAB9D8FF
:104A7000B7A750574DBFAAC6F4B9D8B1D5000000AA
:104A800070B50446002500BF0C212848FCF7EEFF56
:104A9000274908600C212548001DFCF7E7FF254940
:104AA00008600C2121480830FCF7E0FF224908602B
:104AB0000C211E480C30FCF7D9FF204908600C215E
:104AC0001A481030FCF7D2FF1D490860FDF71EFAA6
:104AD000FBF7DCFB054605231A4A00211A48FDF7BF
:104AE0003DFA0823194A00211948FDF737FA072330
:104AF000184A00211848FDF731FA0623174A002109
:104B00001748FDF72BFA0423164A00211648FDF733
:104B100025FA0923154A00211548FDF71FFA0A2036
:104B2000FDF7CEFC2846FBF7B5FB70BDF012002068
:104B30007000002074000020780000207C0000201D
:104B400080000020EC020020E1460008EC0A002072
:104B50009D510008EC060020214A0008EC040020CA
:104B60000D490008EC0E0020414C0008EC1200201A
:104B7000754B000808B500BF00BF00BF12E06A46D1
:104B8000002109480068FCF7BDFFFA2007490860CA
:104B90007D20FEF75BFB41F28830FFF757FC0020D9
:104BA00002490860EBE7000080000020380C00405C
:104BB00010B50446012C04D0022C09D0032C15D1C9
:104BC0000DE00B4800F022F90AA0FBF7C5FB0DE051
:104BD000114800F01BF911A0FBF7BEFB06E00E48E0
:104BE00000F014F90DA0FBF7B7FB00BF00BF10BD2C
:104BF0005800002054657874757265205374617292
:104C00007420636F64652073656E7420482D626F35
:104C10006172640D0A0D0A005F000020546578740B
:104C20007572652053746F7020636F6465207365BF
:104C30006E7420482D626F6172640D0A0D0A0000C7
:104C400008B500BF00BF00BF0CE06A46002106485F
:104C50000068FCF757FF04462046FFF759FC022086
:104C6000FFF7F4FBF1E700007C00002010B55321B2
:104C700040F2F310FFF7C0F8532140F2F310FEF7B3
:104C800009FE532140F2F310FEF7B2FD532140F22A
:104C9000F310FEF751FE532140F2F310FEF79EFE93
:104CA000532140F2F310FEF7E1FEFFF711FE53210E
:104CB00040F2F310FEF7D2FF002009490860091DF9
:104CC00008600749091F086042F2CF01C720FEF7BC
:104CD00069FF06204FF08041C8631620086410BDAC
:104CE0003C0C004070B504460D462348006801287E
:104CF0001ED12248006801280FD1002020490860F9
:104D000020480088091D086000201C4908601D48D3
:104D100001881DA0FBF720FB0AE00020184908606D
:104D2000091D08600120154908601FA0FBF714FB4E
:104D30001148006802281DD11048006801280ED1D2
:104D4000104800880E4908600020091D08600B49C2
:104D500008600C4801881AA0FBF7FEFA0AE0002060
:104D600007490860091D08600120044908600EA079
:104D7000FBF7F2FA70BD00004400002004000020A0
:104D80003C0C004048000020576520686176652093
:104D90006C6F61646564202D256470776D202A43F3
:104DA0004F4C442A0D0A000057652073746F7070D1
:104DB00065642070656C74696572200D0A000000DE
:104DC00057652068617665206C6F61646564202595
:104DD0006470776D202A484F542A0D0A00000000A5
:104DE000014600200CE000BF074A128802F0400292
:104DF000002AF9D00A5C044B1B1D1A80421C90B299
:104E00000A28F0DB704700000048004001460020FF
:104E10000CE000BF074A128802F04002002AF9D0D5
:104E20000A5C044B1B1D1A80421C90B20728F0DB61
:104E30007047000000140140F0B52DED028B83B0E7
:104E400005460E46384905FB01F000EE100AF8EE63
:104E5000400A300100EE100AB8EE400A80EE801AD7
:104E6000B0EE418ABCEEC80A10EE100A84B200EE21
:104E7000104AB8EE400A38EE400AF3EE000A20EE7F
:104E8000200ABCEEC00A10EE107A4FF6FF7000EA5E
:104E90000414E01984B22548006840F00100234959
:104EA000086022481430006840F010001F49143197
:104EB00008600120022100230A46CDE900104FF4CA
:104EC000C0611B48FCF73EFC072209211848FCF78B
:104ED00019FC07220A211648FCF714FC1548048126
:104EE000808920F40040134988810846808940F079
:104EF000080088810846808940F0040088810846BF
:104F0000808940F020008881022325220321084661
:104F1000FCF7DAFC0748808940F400500549888195
:104F200003B0BDEC028BF0BD40420F0030380240B0
:104F3000000002400010014010B503A0FBF70CFA7E
:104F400007A0FBF709FA10BD48616E647368616ED3
:104F50006B20436F6E74726F6C6C65720D0A00008B
:104F60002A2A2A2A2A2A2A2A2A2A2A2A2A2A2A2AA1
:104F70002A2A2A2A0D0A0D0A00000000F0B52DED9C
:104F8000028B83B005460E46384905FB01F000EE62
:104F9000100AF8EE400A300100EE100AB8EE400A9E
:104FA00080EE801AB0EE418ABCEEC80A10EE100AFC
:104FB00084B200EE104AB8EE400A38EE400AF3EE32
:104FC000000A20EE200ABCEEC00A10EE107A4FF65E
:104FD000FF7000EA0414E01984B22548006840F02C
:104FE00004002349086022481030006840F4802003
:104FF0001F49103108600120022100230A46CDE933
:1050000000104FF440611B48FCF79CFB07220A216B
:105010001848FCF777FB07220B211648FCF772FBB8
:1050200015480480001D008840F008001249091D41
:1050300008800846008840F0040008800846008880
:1050400040F0200008800846008840F400500880A6
:105050000223272200210120FCF736FC002007490B
:10506000088003B0BDEC028BF0BD000040420F0091
:105070003038024000080240084800408800002004
:10508000F0B52DED028B83B005460E463D4905FB7C
:1050900001F000EE100AF8EE400A300100EE100AAE
:1050A000B8EE400A80EE801AB0EE418ABCEEC80A23
:1050B00010EE100A84B200EE104AB8EE400A38EE44
:1050C000400AF3EE000A20EE200ABCEEC00A10EE01
:1050D000107A4FF6FF7000EA0414E01984B22A48EF
:1050E000006840F004002849086027481430006830
:1050F00040F02000244914310860012002210023DF
:105100000A46CDE90010C0212048FCF71BFB08220D
:1051100006211E48FCF7F6FA082207211B48FCF777
:10512000F1FA1B480480001D008840F0080018496F
:10513000091D08800846008840F0040008800846E1
:10514000008840F0200008800846008840F40050A5
:1051500008800223472200210846FCF7B5FB42F2F3
:10516000CF016320FEF71CFE0A48008820F00100F2
:105170000849088000200849088003B0BDEC028B74
:10518000F0BD000040420F003038024000080240ED
:1051900008140140001400408600002008B500BF3C
:1051A00000BF00BF0CE06A46002106480068FCF71B
:1051B000A9FC04462046FFF7ABF90220FFF746F9A9
:1051C000F1E700007000002010B500290AD008782F
:1051D000002807D005487844FBF77EFD002801D061
:1051E000002010BD0248784410BD0000E20D000010
:1051F000DA0D000021F00042A2F16052B2F5801FEA
:1052000001F0004328BFD2F17F6C0BD95FEA001C8C
:1052100043EAC20242EB507018BF704728BF20F02B
:1052200001007047B2F5801FBCBF184670474FEAB7
:10523000410C1CF5001F02D2084600F047BD70B5B6
:1052400000F090FB00000089FFF7F6BF4FF0004030
:10525000A0F580007047000010B591EA030F48BF29
:1052600083F0004300F1DA83841A71EB030C05D25A
:10527000121943EB0C03001B61EB0C01DFF824E176
:105280004FEA1154A4EB135C1EEA430F18BF9EEAC9
:10529000445F73D023EA0E03DCF1200E21EA0451AF
:1052A00043F4801332D322FA0CFE10EB0E0023FAE3
:1052B0000CFE41EB0E01CCF1200E03FA0EFE10EBBA
:1052C0000E0051F10001B1F5801FCCF1200E32D259
:1052D00001EB045112FA0EF2BDE8104058BF7047BE
:1052E000401C38BF5FEA420218BF7047002814BF55
:1052F00020F0010041F100014FEA410313F5001FC6
:1053000038BF7047A1F1C04100F07ABB012A43EBDE
:105310000302ACF1200CDCF11F0E32BF4FF0000E87
:1053200023FA0CF310EB030041EB0451B4EB115FD3
:10533000D0D0A1EB045101F5801149085FEA30009B
:1053400001EB04510ED350F1000038BF12FA0EFEEB
:1053500008D1BDE81040C9E7401C38BF5FEA4202EF
:10536000CAD1C3E7BDE810404FEA410313F5001F5F
:1053700038BF7047A1F1C04100F042BB9EEA445FD4
:1053800008D011EA5E0FBDE8104004BF01F00041F3
:1053900000207047BDE8104070B500F0E3FA00BF90
:1053A00064FBBE3E0000E0FF491058BFC1F1404120
:1053B0005B1058BFC3F140438B42EFF3008070474E
:1053C0002DE9C04130B4DFF8A0C23CEA111418BF87
:1053D0003CEA131400F0EC8081EA03051CEA111486
:1053E00044EAD57418BF1CEA131500F0C780A4EB7B
:1053F00005044FF0004545EAC12145EAC32341EACF
:10540000505143EA525304F17F74994204F5003439
:105410004FEAC0204FEAC22208BF904200F09C80B1
:105420004FEA13650FF24016765D4FEA134506FB0F
:1054300005F7C7F1807706FB07F74FEAD737A7FBD9
:1054400003687642C8F58038A7FB06CE38BFA8F1BE
:10545000010807FB08E64FF0000EA6FB028CE6FBF6
:1054600003CEDCF1000CCEF1004E38BFAEF1010EE0
:10547000A6FB0C584FF000074FF00005E6FB0E8727
:10548000A1FB08C6A0FB07CE16EB0E0645F10005F2
:10549000E1FB076515F1E04E7EBFA4F580345FEABD
:1054A00046066D4116F1800745F100054FEA1727C2
:1054B0004FEA066647EA0567A6F1DE46B6F1805F69
:1054C0004FEA15251FD9384624F0010C05EBC471AD
:1054D000BCF1FE6F01EB0C1102D8F0BCBDE80081FD
:1054E00024425CBF01F5801E9EEAC47F02D4F0BC5A
:1054F000BDE80081244238D4F0BCA1F1C041BDE830
:10550000004100F07DBA4FEAD22242EA43524FEA0C
:10551000D323A7FB02864FEAD02040EA415007FB85
:1055200003661EEA0E0F4FEAD12105FB026658BF43
:10553000A6EB0056B6EB00564FEA520E4EEAC37E7B
:1055400018EB0E0E56EB530EBDD518EB02085E415C
:105550007F1C55F10005B6E74FF480154FF00007AA
:105560004FF000064FF00008ADE7F0BC4FF0000030
:1055700001F1C04101F00041BDE8008111EA0C1FBA
:105580000CEA131500D00CE013EA0C1F00F0258084
:105590004FF00000F0BC81EA030101F00041BDE8DA
:1055A0000081F0BCBDE8004181EA030100F028BAA7
:1055B000F0BCBDE8004170B500F0D4F9097EFC3EB6
:1055C00000F007B881EA03014FF0000001F000414C
:1055D000704781EA030100F013BAF0BCBDE8004156
:1055E0004FF0000021497047FFFDFBF9F7F5F4F299
:1055F000F0EEEDEBE9E8E6E4E3E1E0DEDDDBDAD86E
:10560000D7D5D4D3D1D0CFCDCCCBCAC8C7C6C5C4CB
:10561000C2C1C0BFBEBDBCBBBAB9B8B7B6B5B4B3E2
:10562000B2B1B0AFAEADACABAAA9A8A8A7A6A5A4CD
:10563000A3A3A2A1A09F9F9E9D9C9C9B9A99999891
:105640009797969595949393929191908F8F8E8E34
:105650008D8C8C8B8B8A89898888878786858584C1
:1056600084838382828181800000FF070000F87FAD
:1056700051EA030C17D41CF5801F58BFBCF5801FDE
:1056800000F10680994218BF704708BF90427047EA
:1056900007D711F5801F58BF13F5801F19D4994201
:1056A0007047894270471CF5801F08D5BCF5801FE4
:1056B000F7D58B4218BF704708BF824270474FF43E
:1056C000001C1CEB410F38BF1CEB430F01D28B4277
:1056D000704770B500F046F9922449004FF0005130
:1056E0004FF08053FFF760BE4FEA1153A3F580637C
:1056F000D3F11E03A8BFD3F1200C08DB4FF000420A
:1057000042EAC12252EA505232FA03F0704709428B
:105710000BD4102BC4BF0020704703F5787CBCF17C
:10572000FF3F05D04FF0FF3070474FF0000070474B
:1057300070B500F017F900BF49922480002070472F
:10574000F0E710F0004248BF4042B0FA80F310FA90
:1057500003F10AD0C3F11D0303F580634FEA415002
:1057600002EB035202EBD12170474FF0000070476B
:10577000B0FA80F310FA03F10AD0C3F11D0303F568
:1057800080634FEA41504FEA035202EBD121704748
:105790004FF000007047000051EA030C17D41CF5CD
:1057A000801F58BFBCF5801F00F10680994218BFCA
:1057B000704708BF9042704707D711F5801F58BF48
:1057C00013F5801F19D499427047894270471CF520
:1057D000801F08D5BCF5801FF7D58B4218BF7047D6
:1057E00008BF824270474FF4001C1CEB410F38BFCA
:1057F0001CEB430F01D28B42704770B500F0B2F83A
:10580000922449004FF000514FF08053FFF7CCBD78
:10581000DFF848C170B51CEA111E1EBF1CEA131543
:105820009EEA0C0F95EA0C0F00F06F8081EA0304EA
:1058300023EA4C134EEAD47E21EA4C1141F4801144
:1058400043F48013AE44A1FB024CA0FB0365AEF110
:105850007F7E361955EB0C05A1FB034C4CF1000380
:10586000A0FB021C16EB0C06654153F10003094234
:1058700018BF46F0010613F4007F0BD14FEA033145
:105880004FEA0530340341EA155140EA16506FF0F3
:1058900003020AE04FEAC3214FEAC520F40241EABD
:1058A000555140EA56506FF0020202EB2E4201EBD6
:1058B000025585EACE710AD05FEA440C18BF24F085
:1058C000004450F1000041F1000120EAD47040F2A0
:1058D000FE7C624500D270BDA84214BF4FF08044E8
:1058E0004FF04044002E08BF0024BEF1806FA8BFD7
:1058F000A1F1C041BDE8704080F282804FF000000D
:1059000001F1C04101F0004170479EEA0C0F0CEA22
:10591000131518BF95EA0C0F06D04FF0000081EA6E
:10592000030E0EF0004170BD00F01CF88900013E2E
:1059300000F007B800F009B84FEA430C5FEA5C5C7E
:1059400008D081EA030100F05BB84FEA410C5FEA3E
:105950005C5CF6D14FF00000014970470000FF0782
:105960000000F87F0EF1020E2EF0030E5EF8046BBD
:10597000364205D4012A43EB030515F5001F12D862
:10598000012841EB010C1CF5001F0CD80ED14FEA89
:10599000D17C15F5001F0CEB4C0C0CF1020C08BF70
:1059A0004CEBD37C04E04FF0080C01E04FEAD37CD1
:1059B0000CEB4C0526FA05F606F00706B6F1040CCA
:1059C00006D20EEB860CBDE870404CF0010C60472F
:1059D000DFE80CF0090B02024FF000414FF000002D
:1059E000A1F5002170BD19461046012851EB0104B4
:1059F00018BFD4F5001484BF002001F0004170BD31
:105A00000808A0F500114FEA3101704710B591EA7E
:105A1000030F48BF83F000433FF526AC841A71EBB7
:105A2000030C07D212198CF0004C43EB0C03001B43
:105A300061EB0C01DFF8A4E14FEA1154A4EB135C15
:105A40001EEA430F18BF9EEA445F00F0B08023EACD
:105A50006E03524221EA0451C3EB6E0338BF5B1E52
:105A6000DCF1200E25D322FA0CFE10EB0E0043FAD7
:105A70000CFE41EB0E01CCF1200E03FA0EFE10EBF2
:105A80000E0051F10001CCF1200E29D412FA0EF2D1
:105A900001EB0451BDE8104058BF7047401C1CBFCB
:105AA000B2F1004F704700280CBF491C20F00100E4
:105AB000704712EB020E43EB030218BF4FF0010ECA
:105AC0004EEA4202ACF1200CDCF11E0E54D943FA2E
:105AD0000CFE10EB0E0051F1FF31CCF11E0ED5D5AE
